:020000040800F2
:10000000D04500208102000895060008CD050008B3
:1000100091060008B3030008510700080000000023
:10002000000000000000000000000000C101000806
:1000300095020008000000001D0200089906000853
:100040009B0200089B0200089B0200089B0200081C
:100050009B0200089B0200089B0200089B0200080C
:100060009B0200089B0200089B0200089B020008FC
:100070009B0200089B0200089B0200089B020008EC
:100080009B0200089B0200089B0200089B020008DC
:100090009B0200089B0200089B0200089B020008CC
:1000A0009B0200089B0200089B0200089B020008BC
:1000B0009B0200089B0200089B0200089B020008AC
:1000C0009B0200089B0200089B0200089B0200089C
:1000D0009B0200089B0200089B0200089B0200088C
:1000E000B70300089B0200089B0200089B0200085F
:1000F0009B0200089B0200089B0200089B0200086C
:100100009B0200089B0200089B0200089B0200085B
:100110009B0200089B0200089B0200089B0200084B
:100120009B0200089B0200089B0200089B0200083B
:100130009B0200089B0200089B0200089B0200082B
:100140009B0200089B0200089B0200089B0200081B
:100150009B0200089B0200089B0200089B0200080B
:100160009B0200089B0200089B0200089B020008FB
:100170009B0200089B0200089B0200080000000090
:100180009B0200089B0200089B0200089B020008DB
:100190009B0200089B0200089B0200080000000070
:1001A0009B0200089B0200089B020008DFF80CD0AD
:1001B00000F0CEF80048004745170008D045002061
:1001C0002C4B19680868B0E8F04F80F30988BFF33A
:1001D0006F8F4FF0000080F311887047000000001F
:1001E00008480068006880F308884FF0000080F33A
:1001F000148862B661B6BFF34F8FBFF36F8F00DF15
:1002000000BF00BF08ED00E0DFF80C00016841F41A
:1002100070010160704700BF88ED00E0EFF30980D6
:10022000BFF36F8F134B1A681EF0100F08BF20ED3D
:10023000108A20E9F04F106009B44FF0200080F3DD
:100240001188BFF34F8FBFF36F8F02F093FB4FF016
:10025000000080F3118809BC19680868B0E8F04F05
:100260001EF0100F08BFB0EC108A80F30988BFF3AE
:100270006F8F704764000020EFF305807047000027
:100280000648804706480047FEE7FEE7FEE7FEE730
:10029000FEE7FEE7FEE7FEE7FEE7FEE7CD06000825
:1002A000AD01000840EA01039B0703D009E008C93B
:1002B000121F08C0042AFAD203E011F8013B00F82B
:1002C000013B521EF9D27047D2B201E000F8012B77
:1002D000491EFBD270470022F6E710B513460A46C6
:1002E00004461946FFF7F0FF204610BD2DE9F05FE8
:1002F0000546002092469B46884606468146402495
:100300001BE0284641464746224600F042F8534645
:100310005A46C01A914110D311461846224600F0A1
:1003200029F82D1A67EB01084F46224601200021CB
:1003300000F020F817EB00094E41201EA4F1010443
:10034000DFDC484631462A464346BDE8F09F0000C0
:10035000064C074D06E0E06840F0010394E8070012
:1003600098471034AC42F6D3FFF724FFB8340008A6
:10037000D8340008202A04DB203A00FA02F10020D9
:1003800070479140C2F1200320FA03F319439040D3
:100390007047202A04DB203A21FA02F0002170473E
:1003A00021FA02F3D040C2F12002914008431946DD
:1003B000704700BFFEE710B54FF4806000F030FEDC
:1003C0004FF4806000F002F810BD000010B5044644
:1003D000B4F5806F09D14FF48061054800F06BFEE1
:1003E00010B1092000F036F900E000BF00BF10BDD9
:1003F0000000024010B50446214602A000F0AAF910
:1004000010BD00004572726F72204F636375727287
:1004100065642E205265673A5B253034785D0000B4
:1004200010B58CB000241CB32A482B4B2B4A2C4906
:1004300000902C4800F0A4FE2948B0F900003221B9
:1004400090FBF1F000B2264908800846B0F90000A0
:100450007F2802DD7F2008800FE02148B0F90000EE
:1004600010F17F0F09DA6FF07E001D49088004E06B
:10047000184A1A491B4800F01BFF1948B0F9003010
:100480001848407917490979164AD278CDE90A0304
:10049000CDE908211348807812494978114A127829
:1004A0000C4BDB79CDE90432CDE90610094882799D
:1004B000407908490979074BDB78CDE90031CDE96E
:1004C00002020448837842780178074800F042F934
:1004D0000CB010BD4E000020430000204000002062
:1004E0004C000020460000206C34000810B500F0DD
:1004F000C5FE04464FF6FF7000F0DAFF04F001007D
:1005000010B1FFF78DFF16E004F4807010B100F019
:1005100021F810E004F01E0018B12046FFF76AFF32
:1005200009E004F4007010B100F042F803E0214645
:1005300001A000F00FF910BD496E76616C6964206E
:100540007374617475732076616C75652E20253027
:100550003478000000B585B003A800F00BFF9DF8CB
:1005600011009DF810109DF80F20CDE90021029098
:100570009DF80E309DF80D209DF80C1002A000F0A3
:10058000E9F805B000BD0000547820446F6E652E78
:10059000202054503A2530327825303278253032B8
:1005A00078253032782530327825303278000000D6
:1005B00010B502A000F0CEF810BD00004B434D2056
:1005C0005478204661696C2E0000000000BFFEE7F1
:1005D00070B505460C4616461248046000201249C4
:1005E00008604FF4FA601149086009E00F4800689C
:1005F000401E0E49086018B90DA000F0ABF870BDA0
:100600004FF40071124800F056FD0028EED1102181
:100610000F4800F04CFD32462146284600F086FB8C
:1006200000BFECE71C000020200000203C00002060
:100630000A0D5B4B434D2057525D20425553595F85
:1006400050494E2054696D656F75742E0A0D000077
:100650000000024001B501200A49086000230A4653
:1006600069460948006802F0F9FA0648006838B19E
:100670004FF0805005490860BFF34F8FBFF36F8F75
:1006800008BD0000580000201800002004ED00E024
:1006900000BFFEE77047000010B500BF202080F3C8
:1006A0001188BFF34F8FBFF36F8F00BF02F08CFC38
:1006B00018B14FF080500449086000BF002080F35B
:1006C000118800BF10BD000004ED00E008B51C4813
:1006D000006840F470001A4908601A48006840F049
:1006E00001001849086017480830006840F0800091
:1006F0001449083108600020009002E00098401C76
:1007000000904CF2503100988842F7D300200D49F8
:10071000083108600B4800680B4908400949086027
:100720000A48091D0860081F006820F48020091F7E
:100730000860002003490C31086001F095FD08BDF8
:1007400088ED00E000380240FFFFF6FE1030002484
:1007500000BFFEE70FB4054B10B503A9044A029889
:1007600000F018F810BC5DF814FB00002D10000814
:10077000C800002002E008C8121F08C1002AFAD1F0
:1007800070477047002001E001C1121F002AFBD111
:10079000704700002DE9FF4F8DB00F46054600263B
:1007A00006E025280BD0DDE90F1290476D1C761C62
:1007B00028780028F5D111B03046BDE8F08F00242C
:1007C000A246A1460122EC4900E0044315F8013F8E
:1007D000203B02FA03F00842F7D128782A2810D0EB
:1007E0006FF02F022878A0F13001092914D80AEB04
:1007F0008A0102EB410144F0020400EB010A6D1C86
:10080000F0E701CF5FEA000A03D544F40054CAF1CF
:10081000000A44F002046D1C28782E2817D115F820
:10082000010F44F004042A280ED06FF02F0228781C
:10083000A0F1300109290AD809EB890102EB410135
:1008400000EB01096D1CF2E757F8049B6D1C28783A
:100850006C280FD006DC4C2817D068280DD06A28E9
:1008600014D104E0742810D07A280FD10DE044F49C
:1008700000140AE044F4801401E044F44014697860
:10088000814202D104F580146D1C6D1C2A786E2AF9
:100890001FD00CDC632A31D004DC002A8BD0582A0C
:1008A00011D1A3E0642A68D0692A0CD165E0732ACB
:1008B0002ED004DC6F2A73D0702A04D19BE0752AF5
:1008C0006FD0782A6ED01046DDE90F129047761C63
:1008D00050E1C4F30250022806D0032809D00428AE
:1008E00001CF09D0066045E101CFF117C0E90061F1
:1008F00040E101CF06803DE106703BE117F8040BB3
:100900008DF8000000208DF80100EB46012003E087
:1009100057F804BB4FF0FF3061074FF0000102D4DD
:100920000DE008F10101884649450FDA8045F8DB02
:100930001BF808100029F4D108E008F101018846ED
:100940008142FADB1BF808100029F6D1DDE90F23FC
:10095000AAEB08008146214600F036F9304400EB4E
:10096000080604E0DDE90F121BF8010B9047B8F10F
:100970000108F7D221464846F7E00A21C4F30253A2
:100980004FF0000B0891022B04D001CFC117032BAD
:1009900009D00AE0FF1D27F00707F7E8020108E089
:1009A00032E01FE020E000B2C117042B01D140B2B9
:1009B000C117031E71F1000307DA4FF0000CD0EBF2
:1009C0000C006CEB01012D2302E0230504D52B2341
:1009D0008DF82430012303E0E30701D02023F7E75B
:1009E000984658E00A2110E010210EE010204FF048
:1009F000000B08900CE010214FF0000B44F00404B1
:100A00004FF00809089103E008214FF0000B08910E
:100A1000C4F30253022B04D001CF0021032B06D0D4
:100A200006E0FF1D27F00707F7E8020103E080B2A8
:100A3000042B00D1C0B24FF0000823072BD5702A39
:100A400007D0DDF820C08CF0100C5CEA0B0C05D050
:100A50000EE040238DF82430012308E050EA010322
:100A600006D030238DF824308DF8252002239846B7
:100A7000DDF820C08CF0080C5CEA0B0C0BD150EABE
:100A8000010301D1630706D530238DF824304FF0E0
:100A90000108A9F10109582A04D038A20B9208AA2A
:100AA0000A920BE03AA2F9E75B46089AFFF71EFCB0
:100AB0000B9B9B5C0A9A521E0A92137050EA010229
:100AC000F2D10A98ADEB000000F1200B600702D5CF
:100AD00024F4803401E04FF00109D94502DDA9EB8F
:100AE0000B0000E0002000EB0B0141440890AAEB52
:100AF000010AE00306D4DDE90F232146504600F049
:100B000063F806444FF0000908E009A911F809004C
:100B1000DDE90F12904709F10109761CC145F4DBAC
:100B2000E0030CD5DDE90F232146504600F04CF8D8
:100B3000064404E0DDE90F1230209047761C089946
:100B4000481E08900029F5DC08E00A980A99007808
:100B5000491C0A91DDE90F129047761CBBF1000198
:100B6000ABF1010BF1DC21465046DDE90F2300F02B
:100B700019F806446D1C1BE6092801003031323398
:100B800034353637383961626364656600000000C9
:100B900030313233343536373839414243444546B3
:100BA000000000002DE9F041044600251E461746CE
:100BB000880404D405E039462020B0476D1C641E2B
:100BC000F9D52846BDE8F0812DE9F041044600251D
:100BD0001E469046C80301D5302700E02027880430
:100BE00004D505E041463846B0476D1C641EF9D572
:100BF0002846BDE8F08110B501EB4102D30000F1B9
:100C00001002D25842F0010301EB4102D40000F17E
:100C10001002135110BD30B5134601EB4104E5003D
:100C200000F11004625922F0606242EA436201EB73
:100C30004104E50000F11004625130BD10B501EB34
:100C40004102D30000F11002D25822F0010301EB5F
:100C50004102D40000F110021351002301EB4102C4
:100C6000D40000F11002135101EB4102D40000F155
:100C70001402135101EB4102D40000F11802135188
:100C800001EB4102D40000F11C02135101EB4102BF
:100C9000D40000F12002135101EB4102D40000F115
:100CA0002402135104290CDA01EB41025300C1F371
:100CB000400203EB82033D229A4083681A4382601C
:100CC0000DE00A1FD1B201EB41025300C1F3400213
:100CD00003EB82033D229A40C3681A43C26010BDF1
:100CE00010B5034604290FDA01EB41004400C1F3BB
:100CF000400004EB800402FA04F01C68204008B1B4
:100D0000012010BD0020FCE7081FC1B201EB41002B
:100D10004400C1F3400004EB800402FA04F05C6874
:100D2000204008B10120ECE70020EAE770B58AB066
:100D300004460D46164603213148FFF77FFF314830
:100D40000190039440200790002005904FF400305C
:100D5000099008960120029000200490012006903E
:100D600001AA0321264800F051F803221146244825
:100D7000FFF751FF02212248FFF760FF2148019051
:100D80000395002007904FF40030099001AA02213A
:100D90001B4800F03BF8032202211948FFF73BFFF4
:100DA00003211748FFF727FF02211548FFF723FF0C
:100DB0001021154800F07BF94FF4FA7001F032FD74
:100DC000002110480C3801F03DF901210D480C3884
:100DD00001F038F900BF202203210948FFF780FF06
:100DE0000028F8D000BF202202210548FFF778FF35
:100DF0000028F8D01021044800F05BF90AB070BD5B
:100E0000006402400C3001400000024070B501EB6C
:100E10004104E50000F12404645924F0040501EBC9
:100E20004104E60000F12404A55101EB4104E60071
:100E300000F118041568A55101EB4104E60000F12A
:100E40001C049568A55101EB4104E60000F114046F
:100E5000D569A55101EB4104E50000F11004635987
:100E60003F4C2340146944EA8404156A2C43956975
:100E70002C43234301EB4104E50000F110046351CE
:100E8000546874B901EB4104E50000F110046459A1
:100E900044F4007501EB4104E60000F11004A55193
:100EA0001FE05468012C0ED101EB4104E50000F174
:100EB0001004645924F4007501EB4104E60000F1CC
:100EC0001004A5510DE001EB4104E50000F1100410
:100ED000645944F4004501EB4104E60000F11004BC
:100EE000A551D46874B901EB4104E50000F1100488
:100EF000645944F4806501EB4104E60000F11004FC
:100F0000A5510DE001EB4104E50000F11004645926
:100F100024F4806501EB4104E60000F11004A551C2
:100F2000546974B901EB4104E50000F110046459FF
:100F300044F4807501EB4104E60000F11004A55172
:100F40000DE001EB4104E50000F11004645924F4C4
:100F5000807501EB4104E60000F11004A55170BD5D
:100F60003F87FCFF10B52D4B1B6883432B4C236040
:100F7000231D1B688343241D2360231D1B6883439B
:100F8000241D2360231D1B688343241D236011B18E
:100F900001290ED105E0214B1B6803431F4C236040
:100FA00008E01E4B1B1D1B6803431C4C241D2360C3
:100FB00000E000BF00BF32B1012A11D0022A1CD0CC
:100FC000032A27D127E0154B08331B680343134C32
:100FD00008342360231D1B688343241D23601BE00A
:100FE0000E4B08331B6883430C4C08342360231DCD
:100FF0001B680343241D23600EE0084B08331B6865
:101000000343064C08342360231D1B680343241D3F
:10101000236001E000BF00BF00BF10BD003C0140E5
:101020000149086070470000143C014070B5044657
:101030000D46E1B2054801F01BF900BF0721034846
:1010400001F01AF90028F9D0204670BD00100140C7
:10105000F0B503461C6A5D6A00200DE0012686405B
:1010600016403EB187000F26BE40B443860001FA09
:1010700006F63443461CB0B20828EFD3082011E02E
:101080000126864016405EB1A0F10806B7000F2683
:10109000BE40B543A0F10806B60001FA06F6354396
:1010A000461CB0B21028EBD31C625D62F0BD8162B9
:1010B00070478161704702461069084008B10120FD
:1010C00070470020FCE7F0B504460D46164621683F
:1010D000E268002019E0012787401F409FB14FEAD6
:1010E000400C032707FA0CF7B943470005FA07F746
:1010F00039434FEA400C032707FA0CF7BA4347007D
:1011000006FA07F73A43471CB8B21028E3D3216028
:10111000E260F0BDF0B50C461546012C03D14668DF
:101120001E43466002E046689E4346608268002196
:101130000DE001268E401E403EB14F000326BE400A
:10114000B2434E0005FA06F632434E1CB1B21029E6
:10115000EFD38260F0BD000010B501F075F901F029
:101160001BF94FF400410548FFF7A3FF4FF4FA6065
:1011700001F058FB00F090FF10BD00000004024099
:101180002DE9F041C0B005460C4616461F46DDF875
:1011900018817C2121A8FFF79EF822480068209042
:1011A0002148007800F11102694620A81F4B1B68F6
:1011B0009847DDF803002860BDF80700A8801A48AA
:1011C00002780DF109014046FFF76CF80DF10900B6
:1011D000154909780844018831808078B0700DF194
:1011E0000900114909780844B0F8031039804079A2
:1011F000B8700020208021880B4800780F301DF83F
:10120000000041EA002000B22080B4F90010064836
:10121000007810301DF800000143218040B0BDE887
:10122000F0810000503400085D00002060000020C4
:101230001FB5104903C9CDE90201002000900190BB
:1012400000240722694602A80B4B1B6898479DF8AB
:10125000030044EA00649DF8040044EA00449DF859
:10126000050044EA00249DF806000443204604B02B
:1012700010BD000094330008600000201FB50A492B
:1012800003C9CDE9020100240522694602A8074BE3
:101290001B6898479DF8030044EA00249DF8040069
:1012A0000443204604B010BDE43300086000002071
:1012B00070B5A0B004460D4616463C2111A8FFF7B4
:1012C0000AF81248006810901148007800F10C02EA
:1012D000694610A80F4B1B689847DDF80300206093
:1012E000BDF80700A0800A4802780DF109013046D8
:1012F000FEF7D8FF0DF10900054909780844018877
:1013000029808078A87020B070BD000038340008B3
:101310005D0000206000002010B586B004460A4A37
:10132000D2E900109268CDE90402039109226946CE
:1013300003A8064B1B689847DDF803002060BDF842
:101340000700A08006B010BD243400086000002013
:101350001CB50648006801900422694601A8044BA8
:101360001B6898479DF803001CBD00009C330008D3
:101370006000002010B586B004460A4AD2E9001089
:101380009268CDE9040203910922694603A8064B3D
:101390001B689847DDF803002060BDF80700A080B7
:1013A00006B010BD04340008600000201FB50E49CF
:1013B00003C9CDE9020100240722694602A80B4BAC
:1013C0001B6898479DF8030044EA00649DF80400F8
:1013D00044EA00449DF8050044EA00249DF8060014
:1013E0000443204604B010BD88330008600000208C
:1013F00010B50446207800F06FF9207900F0C8F8A5
:10140000207A00F07BF9207A00F0D4F8A18988B224
:1014100000F064F8207C00F043F9207C00F09CF898
:1014200010BD00001CB5044605A0006801908DF8B1
:1014300005400222694601A8024B1B6898471CBD63
:101440001B000000600000201CB5044605A00068D9
:1014500001908DF805400222694601A8024B1B68E5
:1014600098471CBD13000000600000201CB5044616
:1014700005A0006801908DF805400222694601A888
:10148000024B1B6898471CBD140000006000002040
:101490001CB50446002001908DF8054002226946E3
:1014A00001A8024B1B6898471CBD0000600000208B
:1014B0001CB50446074800680190200A8DF8050015
:1014C000E0B28DF806000322694601A8024B1B68B2
:1014D00098471CBDE0330008600000201CB504469E
:1014E000074800680190200A8DF80500E0B28DF8E9
:1014F00006000322694601A8024B1B6898471CBDE1
:10150000CC330008600000201CB504460748006882
:1015100001900CB9012000E000208DF805000222A6
:10152000694601A8024B1B6898471CBD543400084B
:10153000600000201CB5044605A0006801908DF8ED
:1015400005400222694601A8024B1B6898471CBD52
:1015500012000000600000201CB5044609A00068CD
:1015600001908DF80540282C01DD282000E0204660
:10157000054908700222694601A8044B1B68984778
:101580001CBD00001E0000005D0000206000002067
:101590001CB5044605A0006801908DF805400222A4
:1015A000694601A8024B1B6898471CBD1A00000041
:1015B000600000201CB5044605A0006801908DF86D
:1015C00005400222694601A8024B1B6898471CBDD2
:1015D0001D000000600000201FB504460B4903C930
:1015E000CDE90201200E8DF80900200C8DF80A00CB
:1015F000200A8DF80B00E0B28DF80C000522694638
:1016000002A8034B1B6898471FBD00001834000850
:10161000600000201FB504460B4903C9CDE9020153
:10162000200E8DF80900200C8DF80A00200A8DF894
:101630000B00E0B28DF80C000522694602A8034BAE
:101640001B6898471FBD00005C3400086000002044
:1016500001490860704700006000002010B5A0B08C
:1016600004463C2111A8FEF736FE0A480068109097
:101670000948027821460DF14100FEF713FE0648A5
:101680000278521C694610A8044B1B68984720B08A
:1016900010BD0000103400085C0000206000002035
:1016A0001CB5044609A0006801908DF80540282C5F
:1016B00001DD282000E02046054908700222694625
:1016C00001A8044B1B6898471CBD000018000000CF
:1016D0005C000020600000201CB5044605A00068E6
:1016E00001908DF805400222694601A8024B1B6853
:1016F00098471CBD15000000600000201CB5044682
:1017000005A0006801908DF805400222694601A8F5
:10171000024B1B6898471CBD1600000060000020AB
:101720001CB5044605A0006801908DF80540022212
:10173000694601A8024B1B6898471CBD23000000A6
:10174000600000201CB503220021012001F00CFAEA
:10175000214908600020012103468222CDE90010C2
:101760001EA1214801F0F0FB01F0B8F832E01F485B
:10177000007805282CD2DFE800F0030B1B132300B0
:101780001BA0FEF7E7FF4FF4FA7001F04BF820E0E2
:1017900019A0FEF7DFFF4FF4FA7001F043F818E0EC
:1017A00017A0FEF7D7FF4FF4FA7001F03BF810E0F6
:1017B00014A0FEF7CFFF4FF4FA7001F033F808E001
:1017C00011A0FEF7C7FF4FF4FA7001F02BF800E00C
:1017D00000BF00BFCBE7000034000020494E495451
:1017E0005F5441534B0000005911000800000020D5
:1017F00049444C452100000055574221000000009B
:1018000045432100554D210057494649210000001C
:101810002DE9F04103460D46164600240027A04658
:101820002A48006800F4E060B0F5E06F03D100BF23
:101830004FF0040830E02548006800F4E060B0F59F
:10184000C06F03D101274FF0030825E01F4800684F
:1018500000F4E060B0F5A06F02D10227B8461BE0AB
:101860001A48006800F4E060B0F5806F03D10327E8
:101870004FF0010810E01548006800F4E060B0F592
:10188000407F03D104274FF0000805E04FF4A0602B
:1018900000F020F80227B846C7F1040005FA00F46A
:1018A000C8F104010F20C840304004432401084817
:1018B000C45403F01F01012088405911890001F12F
:1018C000E021C1F80001BDE8F08100000CED00E06E
:1018D00000E400E002490143024A11607047000041
:1018E0000000FA050CED00E02DE9F04105460E463A
:1018F0001C4807681C480068001D00F067FE50B9CE
:101900001948006890F82C10012088401749096890
:10191000814316480160681C38B936B11248016825
:10192000091D134800F090FE1AE07C190E4800686B
:101930004460BC4207D20C480168091D0D4800688C
:1019400000F068FE0CE008480168091D0A480068BC
:1019500000F060FE09480068844201D20748046034
:10196000BDE8F08178000020640000207C000020A9
:10197000BC0100206C0000206800002094000020C2
:1019800010B5044600F06CFE24480068401C234952
:1019900008602348006840B9214804600846006890
:1019A00001280DD100F098F90AE01E48006838B906
:1019B0001B480068C06AE16A884201D81848046080
:1019C00019480068401C18490860084600686064AF
:1019D00094F82C10012088401449096808431349E1
:1019E0000860E16A01EB8101114A02EB8100211DCF
:1019F00000F02AFE00F05EFE0A48006868B1084860
:101A00000068C06AE16A884207D24FF080500949F5
:101A10000860BFF34F8FBFF36F8F10BD74000020BD
:101A20006400002080000020900000207C00002046
:101A3000CC00002004ED00E010B516E000F010FE30
:101A40000C48C068C468201D00F0C0FD0A4800684A
:101A5000401E0949086009480068401E074908609F
:101A600000F028FE204600F05FF8044800680028D7
:101A7000E4D110BDA80100207400002070000020F7
:101A800070B504460D46206C70B1216CE0680144CD
:101A9000E160D4E90210884201D32168E160284660
:101AA000226CE168FEF7FEFB70BD2DE9F0410446B3
:101AB0000F4615464FF00008A66B206C48B9206809
:101AC00000282CD1A06801F023FB80460020A060F4
:101AD00025E07DB93946226C6068FEF7E3FB216C96
:101AE000606808446060D4E90101884217D3206827
:101AF000606014E03946226CE068FEF7D3FB216C8D
:101B0000E068411AE1602168E068884203D2216CF4
:101B1000A068411AE160022D01D106B1761E701C49
:101B2000A0634046BDE8F08110B50446206B00F08C
:101B3000DFFD204600F0DCFD10BD000030B54FF4A5
:101B40008043174800F007042CB1C01D20F00700A7
:101B5000134C041B1B1B0246124C22600024114D27
:101B60006C60D018083820F007000F4C206000246B
:101B70000D4D2D686C600C4D2D682C601146441A7B
:101B80004C60094C24680C60084D4C682C60084D72
:101B90004C682C604FF00044064D2C6030BD0000B6
:101BA000D0010020A0000020A8000020B0000020EC
:101BB000AC000020B400002000BFFFF73DFF064846
:101BC00000680128F9D94FF0805004490860BFF33C
:101BD0004F8FBFF36F8FF0E7CC00002004ED00E0E3
:101BE0002DE9F04106460D4617469846069C0DB96C
:101BF000246000E02760E66325640121204600F0B0
:101C0000E1FF84F84C80BDE8F0812DE9F05F824669
:101C10000E4690469B460A9F0C9C56B900BF20205A
:101C200080F31188BFF34F8FBFF36F8F00BF00BFEA
:101C3000FEE74FEA8801A522206BFEF745FBA8F1DD
:101C40000100216B01EB800929F0070909F0070069
:101C500008B9012000E0002050B900BF202080F327
:101C60001188BFF34F8FBFF36F8F00BF00BFFEE738
:101C7000002507E0715D04F134004155705D00B945
:101C800002E06D1C102DF5D300BF0021432001554B
:101C9000082F00D30727E762E76400202065201D96
:101CA00000F0B5FC04F1180000F0B1FC2461C7F1AC
:101CB0000800A06164620020606584F858005A46FC
:101CC0005146484600F096F920600B9808B10B98F1
:101CD0000460BDE8F09F000010B5002407E004EBAD
:101CE00084010F4A02EB810000F084FC641C082C84
:101CF000F5D30C4800F07EFC0B4800F07BFC0B4851
:101D000000F078FC0A4800F075FC0A4800F072FC0C
:101D100004480949086004480849086010BD0000EB
:101D2000CC0000206C0100208001002094010020E4
:101D3000A8010020BC010020680000206C000020E9
:101D400010B50146164800E0006803688B42FBD3DB
:101D50000246436813448B4204D143684C682344D1
:101D6000436001460A464B6813440468A34211D1FC
:101D70000C4C03682468A34208D04B68046864686C
:101D800023444B6003681B680B6005E0054B1B6830
:101D90000B6001E003680B60884200D0016010BD59
:101DA000A0000020A800002070B5054600F058FCF7
:101DB000A86B08B9012400E0002400F07BFC204659
:101DC00070BD00000A490968096809B9012100E0ED
:101DD000002121B14FF0FF31064A116006E00449AD
:101DE0000968C968C868034A416811607047000003
:101DF00068000020940000200E480068401C08B9CC
:101E0000012000E0002050B900BF202080F311889D
:101E1000BFF34F8FBFF36F8F00BF00BFFEE700BF60
:101E2000202080F31188BFF34F8FBFF36F8F00BF67
:101E300000BFFEE7B800002070B5044600F010FCBB
:101E400094F9455010E0606A08B9012000E00020D4
:101E500038B904F1240001F0BFF918B100F01CFDFD
:101E600000E003E0681E45B2002DECDC00BFFF205F
:101E700084F8450000F01EFC00F0F2FB94F9445099
:101E800010E0206908B9012000E0002048B904F101
:101E9000100001F0A1F908B100F0FEFC681E45B287
:101EA00000E001E0002DECDC00BFFF2084F84400DE
:101EB00000F000FC70BD00002DE9F04104464FF039
:101EC000000800F04FFD4648006808B9FFF736FEED
:101ED00044480068204000286BD1D4B1083404F095
:101EE0000700B0B104F00700C0F10800044404F09A
:101EF000070008B9012000E0002050B900BF2020F1
:101F000080F31188BFF34F8FBFF36F8F00BF00BF07
:101F1000FEE7002C4DD034480068844249D8334E47
:101F20003046056801E02E462D686868A04202D25E
:101F300028680028F7D12A480068854239D03068DF
:101F400000F10808286830606868001B102819D95B
:101F50002F1907F0070008B9012000E0002050B950
:101F600000BF202080F31188BFF34F8FBFF36F8F26
:101F700000BF00BFFEE76868001B78606C603846F1
:101F8000FFF7DEFE184968680968081A16490860F4
:101F90000846006816490968884203D2124800685A
:101FA000134908600F4968680968084368600020A1
:101FB000286001F05DF908F0070008B9012000E091
:101FC000002050B900BF202080F31188BFF34F8F4D
:101FD000BFF36F8F00BF00BFFEE74046BDE8F08152
:101FE000A8000020B4000020AC000020A0000020C9
:101FF000B0000020001F4FF080730360001F21F02D
:1020000001030360001F054B036014380260001FCA
:102010006FF002030360203870470000F91D0008CC
:10202000074A02EB9011D1F8001800F01F030122BB
:102030009A401143024B03EB9012C2F8001870470C
:102040000030024021B9426842F00202426003E0DF
:10205000426842F0010242607047016841F040016D
:102060000160704702460020106800F441500B6880
:1020700018434B6818438B681843CB6818430B69A7
:1020800018434B6918438B6918431060D36923F4D4
:102090000063D361704700001CB500200221034695
:1020A0008222CDE9001002A1044800F04DFF1CBDC2
:1020B0005557425F5441534B00000000192500085A
:1020C00070B504460B46CD1701EB9575AD10A1EB2D
:1020D0008505AE000F25B540E843CD1701EB95759A
:1020E000AD10A1EB8505AD0004FA05F2CD1701EBAB
:1020F0009575AD1035B1012D0ED0022D18D0032DE0
:102100002ED121E0184B1B680340174D2B602B4646
:102110001B6813432B6024E0134B1B1D1B680340FB
:10212000114D2D1D2B602B461B6813432B6018E0AF
:102130000D4B08331B6803400B4D08352B602B46B5
:102140001B6813432B600CE0074B0C331B680340E8
:10215000054D0C352B602B461B6813432B6000E0AC
:1021600000BF00BF70BD0000083801400020002102
:102170003A4A126842F48032384B1A6000BF401C61
:10218000364A126802F4003119B94FF6FF729042D4
:10219000F5D1324A126802F400320AB900BFFEE7F4
:1021A0002E4A4032126842F080522C4B40331A6063
:1021B0002B4A126842F44042294B1A60274A0832DF
:1021C0001268264B08331A601A46126842F400421D
:1021D0001A601A46126842F4A0521A60214A1B1F64
:1021E0001A601A1F126842F080721B1F1A6000BF2B
:1021F0001A4A126802F00072002AF9D0184A1268CE
:1022000042F48032164B1A6000BF154A526802F43D
:102210008032002AF9D0124A126842F40032104B80
:102220001A6000BF0E4A526802F40032002AF9D048
:102230000A4A0832126822F00302084B08331A6077
:102240001A46126842F002021A6000BF034A0832BE
:10225000126802F00802002AF8D0704700380240E5
:10226000007000401964400910B5FFF77FFF10BDF2
:10227000C1F308024260704710B5024602EB9110AC
:10228000006801F01F040123A340184008B1012099
:1022900010BD0020FCE7000000B585B014221949EC
:1022A0006846FDF7FFFFFEF7C3FF174908600846C1
:1022B00000681649884207D11348016814A0FEF748
:1022C00049FA17A0FEF746FAFFF742F8FFF76EF853
:1022D0000120FFF7DDF86846FFF78AF81948FFF795
:1022E00099F90120FFF710F90320FFF79BF803206D
:1022F000FFF720F9BE20FFF7A7F8BE20FFF7B6F8DA
:1023000005B000BD743300081400002001059C2DA9
:102310000A0D6465765F69643A25780A0D0000004D
:102320000A0D535049206465766963652069643AF3
:102330002052656164204944204661696C210A0D80
:102340000000000000C2EB1B10B500220221282073
:10235000FFF75EFA0A210020FFF7B2FE00221146C5
:102360004FF48060FEF7FEFD00200246084B19681E
:102370004FF6FF031940074B0B4343EA0221044B7E
:10238000196000BF4FF48060FEF74AFE10BD0000E8
:102390000CED00E00000FA0510B5E0220521274809
:1023A000FEF756FEE023002202212448FEF78BFEB2
:1023B000E023002211462148FEF7ACFE1023002244
:1023C00001211E48FEF77FFE1023002211461B4804
:1023D000FEF7A0FE4FF40043002201211848FEF74B
:1023E00072FE4FF40043002211461548FEF792FE9C
:1023F0002023002201211348FEF765FE202300223E
:1024000011461048FEF786FE4FF480620A210B4801
:10241000FEF71EFE4FF48063012200210748FEF7FD
:1024200052FE4FF40073022200210448FEF74BFED7
:1024300010210248FEF73DFE10BD000000000240E2
:10244000000402400008024010B54FF44060FFF75E
:10245000E7FD40F60140FFF7E3FD40F60240FFF7DD
:10246000DFFD41F20E00FFF7DBFD41F20C10FFF73C
:10247000D7FD41F20E10FFF7D3FD40F61640FFF7EF
:10248000CFFD10BD10B520210B48FEF710FE002433
:102490000AE04FF400710948FEF70DFE00B910BDC7
:1024A000642000F0BFF9641C642CF2D304A0FEF792
:1024B00051F900BFF3E700000008024000000240AD
:1024C0005B4B434D20496E69745D20425553595F03
:1024D00050494E2054696D656F75742E00000000E0
:1024E00000B587B0002001904FF48270009000206A
:1024F000029005904FF40070039018200690002081
:10250000049069460348FFF7ADFD0248FFF7A5FDBB
:1025100007B000BD0030014086B000220121142028
:1025200000F022FB1F490860FFF7DAFFFFF70CFFFE
:10253000FFF7A8FF1C48FFF78BF8FFF7ADFE00245C
:1025400014B90020FFF748F82BE074B117A103C9B4
:10255000CDE901014FF6FF70FEF7AAFF01A8FFF7D2
:102560007DF80020FFF7DCF800BF34B94FF6FF70AC
:10257000FEF79EFF03A8FEF7CFFE4FF0FF3205A93E
:102580000848006800F0E6FB9DF81400092802D115
:10259000FDF7ACFF03E007A0FEF7DCF800BF00BFCB
:1025A00000BFD2E718000020D10500080102030493
:1025B00005060708556E6B6E6F776E204D54534BB2
:1025C000204D736720547970652E000001460A691A
:1025D000D1E901309860D1E9010358605068884220
:1025E00001D188685060002008611068401E1060AA
:1025F0001068704700F1080141604FF0FF318160C1
:1026000000F10801C16001610021016070470021F3
:102610000161704710B502460B685C1C0CB910696B
:1026200007E002F1080000E04068446824689C422A
:10263000FAD944684C604C68A160886041600A61C6
:102640001468641C146010BD42684A6093688B6013
:10265000936859609160086103685B1C0360704770
:1026600000BF202080F31188BFF34F8FBFF36F8F1F
:1026700000BF0E480068401C0C490860084600680E
:10268000012812D10A480068C0B208B9012000E050
:10269000002050B900BF202080F31188BFF34F8F76
:1026A000BFF36F8F00BF00BFFEE77047B800002088
:1026B00004ED00E00D48006850B900BF202080F311
:1026C0001188BFF34F8FBFF36F8F00BF00BFFEE7CE
:1026D00006480068401E054908600846006820B9A1
:1026E000002080F3118800BF00BF7047B8000020B1
:1026F00070B506463546002E3FD0083D2C461F4992
:1027000060680968084008B1012000E0002050B965
:1027100000BF202080F31188BFF34F8FBFF36F8F6E
:1027200000BF00BFFEE7206808B9012000E00020DC
:1027300050B900BF202080F31188BFF34F8FBFF343
:102740006F8F00BF00BFFEE70C4960680968084052
:1027500098B1206888B90949606809688843606051
:1027600000F000F9064960680968084404490860F7
:102770002046FFF7E5FA00F07BFD70BDB4000020B5
:10278000AC00002000204FF0E0210861886106487D
:1027900000684FF47A71B0FBF1F0401E4FF0E02179
:1027A0004861072008617047C400002070B5FDF73C
:1027B00063FD0446102C16D304F1E02090F8F0538A
:1027C00015480078854201DB012000E0002050B967
:1027D00000BF202080F31188BFF34F8FBFF36F8FAE
:1027E00000BF00BFFEE70D48006800F4E0600C4940
:1027F0000968884201D8012000E0002050B900BFDC
:10280000202080F31188BFF34F8FBFF36F8F00BF7D
:1028100000BFFEE770BD0000BC0000200CED00E032
:10282000C000002070B504460025D4B112480068ED
:1028300008B9012000E0002050B900BF202080F33B
:102840001188BFF34F8FBFF36F8F00BF00BFFEE74C
:1028500000F088F800212046FFF746F800F008FD58
:1028600005463DB94FF0805004490860BFF34F8FD3
:10287000BFF36F8F70BD00009C00002004ED00E0EE
:102880000349096801600349096841607047000015
:102890008C0000207800002001200149086070476A
:1028A0008800002070B504460D4654B900BF2020B2
:1028B00080F31188BFF34F8FBFF36F8F00BF00BF4E
:1028C000FEE70548016818312046FFF7A3FE012105
:1028D0002846FFF709F870BD640000201CB51A48AF
:1028E00000210B468222CDE9001018A1194800F002
:1028F0002BFB0446012C15D100BF202080F311884A
:10290000BFF34F8FBFF36F8F00BF4FF0FF301249FF
:10291000086001201149086000201149086000F09A
:102920006FF810E0601C08B1012000E0002050B9F1
:1029300000BF202080F31188BFF34F8FBFF36F8F4C
:1029400000BF00BFFEE71CBD9800002049444C4575
:1029500000000000B91B0008940000208000002047
:102960007800002002480068401C01490860704758
:102970009C0000201D48006818B101201C49086017
:1029800032E000201A4908601A480068B0FA80F066
:10299000C0F11F0101EB8100174A52F8200008B175
:1029A000012000E0002050B900BF202080F31188F2
:1029B000BFF34F8FBFF36F8F00BF00BFFEE701EB88
:1029C00081020D4B03EB820042685268426000F1C5
:1029D00008024368934202D14268526842604268EA
:1029E000D268064B1A6000BF704700009C000020B0
:1029F000880000207C000020CC0000206400002023
:102A00001CB5524800685249884201D0012000E0BC
:102A1000002050B900BF202080F31188BFF34F8FF2
:102A2000BFF36F8F00BF00BFFEE74848006848490A
:102A3000491E884201D0012000E0002050B900BFAB
:102A4000202080F31188BFF34F8FBFF36F8F00BF3B
:102A500000BFFEE73F49084600780190FF200A4684
:102A600010700846007800909DF8000000F0F0001B
:102A70009DF80020904201D1012000E0002050B9D3
:102A800000BF202080F31188BFF34F8FBFF36F8FFB
:102A900000BF00BFFEE79DF8000000F020002E4AB6
:102AA000107007202D4A106009E02C480068401E75
:102AB0002A4A10609DF800004006000E00909DF824
:102AC000000000F080008028EFD024480068C0F1AA
:102AD0000700042801D1012000E0002050B900BF08
:102AE000202080F31188BFF34F8FBFF36F8F00BF9B
:102AF00000BFFEE7194800680002184A106010463F
:102B0000008800F4E0601060124A019810700F48CD
:102B10002030006840F470000C49203108600846FD
:102B2000006840F070400860FFF72CFE00200C4960
:102B30000860FDF769FB0B48006840F04040094918
:102B40000860FDF74DFB00201CBD000000ED00E01B
:102B500071C20F4100E400E0BC000020C000002072
:102B6000B800002034EF00E02DE9F84305460E469A
:102B700090460DB1012000E0002050B900BF202098
:102B800080F31188BFF34F8FBFF36F8F00BF00BF7B
:102B9000FEE70EB9002701E005FB06F707F150003C
:102BA000FFF78AF904464CB1A14609F150094346A2
:102BB0004A46314628460094FFF712F82046BDE801
:102BC000F883000070B505460E462C4654B900BF88
:102BD000202080F31188BFF34F8FBFF36F8F00BFAA
:102BE00000BFFEE7FFF73CFDD4E90F12206801FBB0
:102BF0000200A0600020A06320686060E06B401EBF
:102C0000226C216800FB0211E160FF2084F844007F
:102C100084F845009EB9206908B9012000E0002031
:102C2000A8B904F1100000F0D7FA80B14FF080503D
:102C300009490860BFF34F8FBFF36F8F07E004F1BE
:102C40001000FFF7D7FC04F12400FFF7D3FCFFF7D7
:102C500031FD012070BD000004ED00E02DE9F05FC2
:102C600007468A4690461E463C4654B900BF20207F
:102C700080F31188BFF34F8FBFF36F8F00BF00BF8A
:102C8000FEE7BAF1000F01D1206C08B9012000E085
:102C9000002050B900BF202080F31188BFF34F8F70
:102CA000BFF36F8F00BF00BFFEE7022E02D1E06BC3
:102CB000012801D1012000E0002050B900BF2020F0
:102CC00080F31188BFF34F8FBFF36F8F00BF00BF3A
:102CD000FEE7FFF76BFD00BF2021EFF3118081F3CA
:102CE0001188BFF34F8FBFF36F8F00BF0546A06BF6
:102CF000E16B884201D3022E23D194F945B03246CC
:102D000051462046FEF7D1FE0BF1010088B9606AFA
:102D100008B9012000E0002080B904F1240000F08F
:102D20005BFA58B1B8F1000F08D00120C8F80000D4
:102D300004E00BF1010040B284F845004FF00109B6
:102D400001E04FF0000900BF85F3118800BF48463D
:102D5000BDE8F09F2DE9F74183B005460E464FF0E0
:102D600000082C4654B900BF202080F31188BFF31F
:102D70004F8FBFF36F8F00BF00BFFEE70EB9206C0F
:102D800008B9012000E0002050B900BF202080F3E6
:102D90001188BFF34F8FBFF36F8F00BF00BFFEE7F7
:102DA00000F002F908B9059808B9012000E00020F8
:102DB00050B900BF202080F31188BFF34F8FBFF3BD
:102DC0006F8F00BF00BFFEE700BFFFF749FCA76B96
:102DD000F7B131462046FEF753FE781EA063206906
:102DE00008B9012000E0002060B904F1100000F0F3
:102DF000F3F938B14FF080502F490860BFF34F8F7F
:102E0000BFF36F8FFFF756FC012006B0BDE8F081DD
:102E1000059818B9FFF74EFC0020F6E7B8F1000F4F
:102E200004D101A8FFF72CFD4FF00108FFF742FC89
:102E3000FFF798FDFFF714FC94F94400401C10B90B
:102E4000002084F8440094F94500401C10B900208B
:102E500084F84500FFF72EFC05A901A800F02EF824
:102E6000F0B92046FEF7A0FFA0B104F124000599B7
:102E7000FFF718FD2046FEF7DFFF00F0F9F9002804
:102E8000A3D14FF080500C490860BFF34F8FBFF3C0
:102E90006F8F9AE72046FEF7CFFF00F0E9F994E73D
:102EA0002046FEF7C9FF00F0E3F92046FEF77CFF5D
:102EB00000288AD00020A8E704ED00E070B50546A0
:102EC0000C4655B900BF202080F31188BFF34F8F07
:102ED000BFF36F8F00BF00BFFEE754B900BF2020D3
:102EE00080F31188BFF34F8FBFF36F8F00BF00BF18
:102EF000FEE7FFF7B5FB124802686868131A2068FE
:102F0000401C08B9002617E00E4928680968884265
:102F100004D06868904201D801260DE020689842EC
:102F200007D92068C01A20602846FFF7A9FC0026B0
:102F300002E0002020600126FFF7BCFB304670BD98
:102F4000780000208C0000202DE9FF4F85B08046DE
:102F500089461746DDE912ABB800FEF7ADFF06461D
:102F600056B15C20FEF7A8FF04460CB1266304E0CE
:102F70003046FFF7BDFB00E000247CB10020CDE926
:102F800000ABCDE902403A4649464046089BFEF771
:102F90003CFE2046FEF7F4FC012501E04FF0FF3532
:102FA000284609B0BDE8F08F0549096809B9012034
:102FB00005E00449096809B9022000E000207047D3
:102FC000800000209C0000202DE9F0414FF0000817
:102FD00044480068002877D143480068451C4248AF
:102FE000056015BB41480068006808B9012000E091
:102FF000002050B900BF202080F31188BFF34F8F0D
:10300000BFF36F8F00BF00BFFEE73848076838483E
:103010000068364908603648076036480068401C3A
:1030200034490860FEF7CEFE00BF33480068854291
:103030003CD300BF2D480068006808B9012000E0BB
:10304000002020B14FF0FF302B4908602DE02748C9
:103050000068C068C4686668B54202D22648066047
:1030600023E0201DFFF7B2FAA06A18B104F118009E
:10307000FFF7ACFA94F82C10012088401F4909682A
:1030800008431E490860E16A01EB81011C4A02EB1A
:103090008100211DFFF7D8FA1A49E06A0968C96A58
:1030A0008842C7D34FF00108C4E700BF1548006845
:1030B000C06A00EB8000124951F82000012801D9B4
:1030C0004FF0010805E0FFE70F480068401C0E497B
:1030D00008600E48006808B14FF001084046BDE89E
:1030E000F08100009C000020780000206800002093
:1030F0006C0000208C000020940000207C00002048
:10310000CC00002064000020840000208800002003
:1031100070B505462C460026002D55D02B4800687A
:10312000844201D1012000E0002050B900BF2020DE
:1031300080F31188BFF34F8FBFF36F8F00BF00BFC5
:10314000FEE7206D50B900BF202080F31188BFF347
:103150004F8FBFF36F8F00BF00BFFEE7206D401E93
:103160002065E16CE06A88422ED0206D60BB201D96
:10317000FFF72CFA78B9E06A00EB8000144951F8A7
:10318000200040B994F82C100120884011490968AA
:10319000814310480160E06CE062E06AC0F1080021
:1031A000A06194F82C10012088400A49096808435E
:1031B00008490860E16A01EB8101054A02EB8100E0
:1031C000211DFFF741FA0126304670BD6400002042
:1031D000CC0000207C00002070B50646F068C46872
:1031E00054B900BF202080F31188BFF34F8FBFF385
:1031F0006F8F00BF00BFFEE704F11800FFF7E6F98C
:1032000015480068A8B9201DFFF7E0F994F82C10C4
:103210000120884011490968084310490860E16AA3
:1032200001EB81010E4A02EB8100211DFFF70CFA30
:1032300004E004F118010B48FFF706FA0A49E06AB6
:103240000968C96A884204D9012501200749086034
:1032500000E00025284670BD9C0000207C00002076
:10326000CC00002094010020640000208800002091
:1032700070B5002400263648006850B900BF2020F1
:1032800080F31188BFF34F8FBFF36F8F00BF00BF74
:10329000FEE7FFF7E5F92E480068401E2C4908605C
:1032A0000846006800284FD12A48006800284BD003
:1032B00024E02948C068C46804F11800FFF786F9C3
:1032C000201DFFF783F994F82C1001208840234932
:1032D0000968084321490860E16A01EB8101204A3D
:1032E00002EB8100211DFFF7AFF91E49E06A096872
:1032F000C96A884202D301201B4908601648006849
:1033000008B9012000E000200028D2D00CB1FEF75F
:1033100059FD1648056865B100BFFFF755FE10B1AD
:103320000120114908606D1E002DF6D100200F49C3
:1033300008600D48006838B1012630070C49086064
:10334000BFF34F8FBFF36F8FFFF7B4F9304670BDF7
:103350009C00002074000020940100207C000020CC
:10336000CC000020640000208800002084000020A1
:1033700004ED00E0FF0000008000000002000000FB
:10338000E8030000080000008100000000000000C9
:1033900082000000830000000000000084000000A4
:1033A0008500000000000000000000009100000007
:1033B00092000000930000009400000095000000BF
:1033C0009A000000960000009D0000001700000019
:1033D0009700000000000000980000009E00000020
:1033E0001900000099000000000000009900000092
:1033F0009C000000210000002200000000000000EE
:1034000099000000A400000000000000000000007F
:103410002500000026000000310000000000000030
:10342000B2000000B3000000000000000000000037
:10343000B400000000000000B5000000B60000006D
:10344000B700000000000000B9000000000000000C
:10345000BA000000450000004400000046000000E3
:1034600000000000FC000000FD0000005044553A40
:103470002530327825303278253032782530327850
:103480002530327825303278253032782530327840
:103490002054503A25303278253032782530327831
:1034A0002530327825303278253032782044465421
:1034B000503A256400000000D834000800000020C5
:1034C000CC00000074070008A4350008CC000020E0
:1034D0000445000084070008000000000000000010
:1034E0000000000083000000000000000000000059
:1034F0000000000000000000000000008300000049
:1035000000000000000000000000000000000000BB
:1035100000000000000000000000000000000000AB
:10352000000000000000000000000000000000009B
:10353000000000000808000000000000000000007B
:10354000000000000000000000000000000000007B
:10355000000000000000000000000000000000006B
:10356000000000000000000000000000000000005B
:10357000000000000000000000000000000000004B
:10358000000000000000000000000000000000003B
:10359000AAAAAAAA000000000000000000C2EB0BCB
:0435A0000000000027
:04000005080001AD41
:00000001FF
